{"abi":[{"type":"constructor","inputs":[],"stateMutability":"nonpayable"},{"type":"function","name":"hitCount","inputs":[],"outputs":[{"name":"","type":"uint256","internalType":"uint256"}],"stateMutability":"view"},{"type":"function","name":"lastEmitter","inputs":[],"outputs":[{"name":"","type":"address","internalType":"address"}],"stateMutability":"view"},{"type":"function","name":"lastTopic0","inputs":[],"outputs":[{"name":"","type":"bytes32","internalType":"bytes32"}],"stateMutability":"view"},{"type":"function","name":"owner","inputs":[],"outputs":[{"name":"","type":"address","internalType":"address"}],"stateMutability":"view"},{"type":"function","name":"setTrustedHandler","inputs":[{"name":"handler","type":"address","internalType":"address"}],"outputs":[],"stateMutability":"nonpayable"},{"type":"function","name":"touch","inputs":[{"name":"emitter","type":"address","internalType":"address"},{"name":"topic0","type":"bytes32","internalType":"bytes32"}],"outputs":[],"stateMutability":"nonpayable"},{"type":"function","name":"trustedHandler","inputs":[],"outputs":[{"name":"","type":"address","internalType":"address"}],"stateMutability":"view"},{"type":"error","name":"HandlerAlreadySet","inputs":[]},{"type":"error","name":"Unauthorized","inputs":[]}],"bytecode":{"object":"0x6080604052348015600f57600080fd5b50600080546001600160a01b0319163317905561028d806100316000396000f3fe608060405234801561001057600080fd5b506004361061007d5760003560e01c80638106a8b11161005b5780638106a8b1146100de5780638da5cb5b146100e757806395370682146100fa578063cc6e897a1461010d57600080fd5b806332f191bb14610082578063582598a7146100975780636f25d0f3146100b3575b600080fd5b61009561009036600461020b565b610120565b005b6100a060045481565b6040519081526020015b60405180910390f35b6001546100c6906001600160a01b031681565b6040516001600160a01b0390911681526020016100aa565b6100a060035481565b6000546100c6906001600160a01b031681565b61009561010836600461022d565b610196565b6002546100c6906001600160a01b031681565b6000546001600160a01b0316331461014a576040516282b42960e81b815260040160405180910390fd5b6001546001600160a01b03161561017457604051631f86d8ad60e11b815260040160405180910390fd5b600180546001600160a01b0319166001600160a01b0392909216919091179055565b6001546001600160a01b031633146101c0576040516282b42960e81b815260040160405180910390fd5b600280546001600160a01b0319166001600160a01b039390931692909217909155600355600480546001019055565b80356001600160a01b038116811461020657600080fd5b919050565b60006020828403121561021d57600080fd5b610226826101ef565b9392505050565b6000806040838503121561024057600080fd5b610249836101ef565b94602093909301359350505056fea2646970667358221220855e40d949642b671e07a2d43cb41df987e3ddb4fe1f3ed5959301a932ca928564736f6c634300081e0033","linkReferences":{}},"methodIdentifiers":{"hitCount()":"582598a7","lastEmitter()":"cc6e897a","lastTopic0()":"8106a8b1","owner()":"8da5cb5b","setTrustedHandler(address)":"32f191bb","touch(address,bytes32)":"95370682","trustedHandler()":"6f25d0f3"},"id":6}