{"abi":[{"type":"constructor","inputs":[{"name":"workflowId_","type":"bytes32","internalType":"bytes32"},{"name":"nodeId_","type":"bytes32","internalType":"bytes32"},{"name":"sink_","type":"address","internalType":"address"}],"stateMutability":"nonpayable"},{"type":"function","name":"nodeId","inputs":[],"outputs":[{"name":"","type":"bytes32","internalType":"bytes32"}],"stateMutability":"view"},{"type":"function","name":"onEvent","inputs":[{"name":"emitter","type":"address","internalType":"address"},{"name":"eventTopics","type":"bytes32[]","internalType":"bytes32[]"},{"name":"data","type":"bytes","internalType":"bytes"}],"outputs":[],"stateMutability":"nonpayable"},{"type":"function","name":"sink","inputs":[],"outputs":[{"name":"","type":"address","internalType":"contract ReactionSink"}],"stateMutability":"view"},{"type":"function","name":"supportsInterface","inputs":[{"name":"interfaceId","type":"bytes4","internalType":"bytes4"}],"outputs":[{"name":"","type":"bool","internalType":"bool"}],"stateMutability":"pure"},{"type":"function","name":"workflowId","inputs":[],"outputs":[{"name":"","type":"bytes32","internalType":"bytes32"}],"stateMutability":"view"},{"type":"event","name":"WorkflowNoOp","inputs":[{"name":"workflowId","type":"bytes32","indexed":true,"internalType":"bytes32"},{"name":"nodeId","type":"bytes32","indexed":true,"internalType":"bytes32"},{"name":"reason","type":"string","indexed":false,"internalType":"string"}],"anonymous":false},{"type":"event","name":"WorkflowStepExecuted","inputs":[{"name":"workflowId","type":"bytes32","indexed":true,"internalType":"bytes32"},{"name":"nodeId","type":"bytes32","indexed":true,"internalType":"bytes32"},{"name":"timestamp","type":"uint256","indexed":false,"internalType":"uint256"}],"anonymous":false},{"type":"error","name":"OnlyReactivityPrecompile","inputs":[]}],"bytecode":{"object":"0x60e060405234801561001057600080fd5b5060405161053e38038061053e83398101604081905261002f91610049565b60809290925260a0526001600160a01b031660c05261008f565b60008060006060848603121561005e57600080fd5b83516020850151604086015191945092506001600160a01b038116811461008457600080fd5b809150509250925092565b60805160a05160c05161046d6100d16000396000818160d301526101f3015260008181608901526102630152600081816101120152610284015261046d6000f3fe608060405234801561001057600080fd5b50600436106100575760003560e01c806301ffc9a71461005c578063139d7fed1461008457806353edf33d146100b9578063c74e820e146100ce578063df6465d01461010d575b600080fd5b61006f61006a3660046102de565b610134565b60405190151581526020015b60405180910390f35b6100ab7f000000000000000000000000000000000000000000000000000000000000000081565b60405190815260200161007b565b6100cc6100c7366004610358565b61016b565b005b6100f57f000000000000000000000000000000000000000000000000000000000000000081565b6040516001600160a01b03909116815260200161007b565b6100ab7f000000000000000000000000000000000000000000000000000000000000000081565b60006301ffc9a760e01b6001600160e01b03198316148061016557506353edf33d60e01b6001600160e01b03198316145b92915050565b336101001461018d5760405163191fbb7560e01b815260040160405180910390fd5b61019a85858585856101a1565b5050505050565b6000836101af5760006101ca565b848460008181106101c2576101c2610421565b905060200201355b604051634a9b834160e11b81526001600160a01b038881166004830152602482018390529192507f000000000000000000000000000000000000000000000000000000000000000090911690639537068290604401600060405180830381600087803b15801561023957600080fd5b505af115801561024d573d6000803e3d6000fd5b50505050610259610261565b505050505050565b7f00000000000000000000000000000000000000000000000000000000000000007f00000000000000000000000000000000000000000000000000000000000000007f84b975aa2cd6c606139bfc8e90907b1fe762c8bd6fa50fffc59e4953d2a8356b426040516102d491815260200190565b60405180910390a3565b6000602082840312156102f057600080fd5b81356001600160e01b03198116811461030857600080fd5b9392505050565b60008083601f84011261032157600080fd5b50813567ffffffffffffffff81111561033957600080fd5b60208301915083602082850101111561035157600080fd5b9250929050565b60008060008060006060868803121561037057600080fd5b85356001600160a01b038116811461038757600080fd5b9450602086013567ffffffffffffffff8111156103a357600080fd5b8601601f810188136103b457600080fd5b803567ffffffffffffffff8111156103cb57600080fd5b8860208260051b84010111156103e057600080fd5b60209190910194509250604086013567ffffffffffffffff81111561040457600080fd5b6104108882890161030f565b969995985093965092949392505050565b634e487b7160e01b600052603260045260246000fdfea2646970667358221220347d895cdeeb3b698dea53015b6ff67aa0b67aac670e3b0ff2563e63ed009b4d64736f6c634300081e0033","linkReferences":{}},"methodIdentifiers":{"nodeId()":"139d7fed","onEvent(address,bytes32[],bytes)":"53edf33d","sink()":"c74e820e","supportsInterface(bytes4)":"01ffc9a7","workflowId()":"df6465d0"},"id":5}