{"abi":[{"type":"constructor","inputs":[],"stateMutability":"nonpayable"},{"type":"function","name":"append","inputs":[{"name":"topic","type":"bytes32","internalType":"bytes32"},{"name":"payload","type":"bytes","internalType":"bytes"}],"outputs":[],"stateMutability":"nonpayable"},{"type":"function","name":"entryCount","inputs":[],"outputs":[{"name":"","type":"uint256","internalType":"uint256"}],"stateMutability":"view"},{"type":"function","name":"getEntry","inputs":[{"name":"index","type":"uint256","internalType":"uint256"}],"outputs":[{"name":"","type":"tuple","internalType":"struct AuditLog.Entry","components":[{"name":"index","type":"uint256","internalType":"uint256"},{"name":"topic","type":"bytes32","internalType":"bytes32"},{"name":"payload","type":"bytes","internalType":"bytes"},{"name":"writer","type":"address","internalType":"address"},{"name":"timestamp","type":"uint256","internalType":"uint256"}]}],"stateMutability":"view"},{"type":"function","name":"isWriter","inputs":[{"name":"","type":"address","internalType":"address"}],"outputs":[{"name":"","type":"bool","internalType":"bool"}],"stateMutability":"view"},{"type":"function","name":"owner","inputs":[],"outputs":[{"name":"","type":"address","internalType":"address"}],"stateMutability":"view"},{"type":"function","name":"setWriter","inputs":[{"name":"writer","type":"address","internalType":"address"},{"name":"allowed","type":"bool","internalType":"bool"}],"outputs":[],"stateMutability":"nonpayable"},{"type":"event","name":"EntryAppended","inputs":[{"name":"index","type":"uint256","indexed":true,"internalType":"uint256"},{"name":"topic","type":"bytes32","indexed":true,"internalType":"bytes32"},{"name":"writer","type":"address","indexed":true,"internalType":"address"}],"anonymous":false},{"type":"event","name":"WriterUpdated","inputs":[{"name":"writer","type":"address","indexed":true,"internalType":"address"},{"name":"allowed","type":"bool","indexed":false,"internalType":"bool"}],"anonymous":false},{"type":"error","name":"Unauthorized","inputs":[]}],"bytecode":{"object":"0x6080604052348015600f57600080fd5b50600280546001600160a01b031916339081179091556000908152600160208190526040909120805460ff19169091179055610761806100506000396000f3fe608060405234801561001057600080fd5b50600436106100625760003560e01c8063039d31e9146100675780630cbb0f831461007c5780631f91b39f146100925780632b29ba23146100a55780638da5cb5b146100d8578063bae78d7b14610103575b600080fd5b61007a61007536600461041d565b610123565b005b6000546040519081526020015b60405180910390f35b61007a6100a03660046104b7565b610260565b6100c86100b33660046104f3565b60016020526000908152604090205460ff1681565b6040519015158152602001610089565b6002546100eb906001600160a01b031681565b6040516001600160a01b039091168152602001610089565b610116610111366004610515565b6102e9565b604051610089919061052e565b3360009081526001602052604090205460ff16610152576040516282b42960e81b815260040160405180910390fd5b60008080549050905060006040518060a0016040528083815260200186815260200185858080601f01602080910402602001604051908101604052809392919081815260200183838082843760009201829052509385525050336020808501919091524260409485015285546001818101885596845292819020855160059094020192835584015194820194909455908201519192509060028201906101f89082610656565b5060608201516003820180546001600160a01b0319166001600160a01b039092169190911790556080909101516004909101556040513390859083907fd7976e5f0afdb5728a64f721eb483e1c5f228a68d5964d2e3d9cf95c418542f590600090a450505050565b6002546001600160a01b0316331461028a576040516282b42960e81b815260040160405180910390fd5b6001600160a01b038216600081815260016020908152604091829020805460ff191685151590811790915591519182527f7500d470ca795448d4f0b796ac1d4562fd0d46302770ff16ee8aa96db044c93f910160405180910390a25050565b6103276040518060a0016040528060008152602001600080191681526020016060815260200160006001600160a01b03168152602001600081525090565b6000828154811061033a5761033a610715565b90600052602060002090600502016040518060a00160405290816000820154815260200160018201548152602001600282018054610377906105cd565b80601f01602080910402602001604051908101604052809291908181526020018280546103a3906105cd565b80156103f05780601f106103c5576101008083540402835291602001916103f0565b820191906000526020600020905b8154815290600101906020018083116103d357829003601f168201915b505050918352505060038201546001600160a01b0316602082015260049091015460409091015292915050565b60008060006040848603121561043257600080fd5b83359250602084013567ffffffffffffffff81111561045057600080fd5b8401601f8101861361046157600080fd5b803567ffffffffffffffff81111561047857600080fd5b86602082840101111561048a57600080fd5b939660209190910195509293505050565b80356001600160a01b03811681146104b257600080fd5b919050565b600080604083850312156104ca57600080fd5b6104d38361049b565b9150602083013580151581146104e857600080fd5b809150509250929050565b60006020828403121561050557600080fd5b61050e8261049b565b9392505050565b60006020828403121561052757600080fd5b5035919050565b6020815281516020820152602082015160408201526000604083015160a0606084015280518060c085015260005b8181101561057957602081840181015160e087840101520161055c565b50600084820160e0015260608501516001600160a01b038116608086015291506080949094015160a0840152505060e0601f909201601f1916010190565b634e487b7160e01b600052604160045260246000fd5b600181811c908216806105e157607f821691505b60208210810361060157634e487b7160e01b600052602260045260246000fd5b50919050565b601f82111561065157806000526020600020601f840160051c8101602085101561062e5750805b601f840160051c820191505b8181101561064e576000815560010161063a565b50505b505050565b815167ffffffffffffffff811115610670576106706105b7565b6106848161067e84546105cd565b84610607565b6020601f8211600181146106b857600083156106a05750848201515b600019600385901b1c1916600184901b17845561064e565b600084815260208120601f198516915b828110156106e857878501518255602094850194600190920191016106c8565b50848210156107065786840151600019600387901b60f8161c191681555b50505050600190811b01905550565b634e487b7160e01b600052603260045260246000fdfea26469706673582212201d54069f58f2f0d74ed25fa525b104cc2069736525ad49bc3f24189fb277437264736f6c634300081e0033","linkReferences":{}},"methodIdentifiers":{"append(bytes32,bytes)":"039d31e9","entryCount()":"0cbb0f83","getEntry(uint256)":"bae78d7b","isWriter(address)":"2b29ba23","owner()":"8da5cb5b","setWriter(address,bool)":"1f91b39f"},"id":25}