{"abi":[{"type":"function","name":"ping","inputs":[{"name":"seq","type":"uint256","internalType":"uint256"}],"outputs":[],"stateMutability":"nonpayable"},{"type":"function","name":"pingCount","inputs":[],"outputs":[{"name":"","type":"uint256","internalType":"uint256"}],"stateMutability":"view"},{"type":"event","name":"Ping","inputs":[{"name":"seq","type":"uint256","indexed":true,"internalType":"uint256"}],"anonymous":false}],"bytecode":{"object":"0x6080604052348015600f57600080fd5b5060e48061001e6000396000f3fe6080604052348015600f57600080fd5b506004361060325760003560e01c8063773acdef14603757806387704569146048575b600080fd5b604660423660046096565b6062565b005b605060005481565b60405190815260200160405180910390f35b60008054600101815560405182917f48257dc961b6f792c2b78a080dacfed693b660960a702de21cee364e20270e2f91a250565b60006020828403121560a757600080fd5b503591905056fea2646970667358221220e47443fad56d0a35f4029b60be5f9cfbfcf26995bfb736bb8c36a89c86cd417064736f6c634300081e0033","linkReferences":{}},"methodIdentifiers":{"ping(uint256)":"773acdef","pingCount()":"87704569"},"id":0}