{"abi":[{"type":"function","name":"deleteWorkflow","inputs":[{"name":"workflowId","type":"bytes32","internalType":"bytes32"}],"outputs":[],"stateMutability":"nonpayable"},{"type":"function","name":"getWorkflow","inputs":[{"name":"workflowId","type":"bytes32","internalType":"bytes32"}],"outputs":[{"name":"owner","type":"address","internalType":"address"},{"name":"status","type":"uint8","internalType":"enum WorkflowRegistry.WorkflowStatus"},{"name":"nodes","type":"address[]","internalType":"address[]"},{"name":"subscriptionIds","type":"uint256[]","internalType":"uint256[]"}],"stateMutability":"view"},{"type":"function","name":"pauseWorkflow","inputs":[{"name":"workflowId","type":"bytes32","internalType":"bytes32"}],"outputs":[],"stateMutability":"nonpayable"},{"type":"function","name":"registerWorkflow","inputs":[{"name":"workflowId","type":"bytes32","internalType":"bytes32"},{"name":"nodes","type":"address[]","internalType":"address[]"},{"name":"subscriptionIds","type":"uint256[]","internalType":"uint256[]"}],"outputs":[],"stateMutability":"nonpayable"},{"type":"function","name":"resumeWorkflow","inputs":[{"name":"workflowId","type":"bytes32","internalType":"bytes32"}],"outputs":[],"stateMutability":"nonpayable"},{"type":"function","name":"updateSubscriptionIds","inputs":[{"name":"workflowId","type":"bytes32","internalType":"bytes32"},{"name":"subscriptionIds","type":"uint256[]","internalType":"uint256[]"}],"outputs":[],"stateMutability":"nonpayable"},{"type":"function","name":"workflowExists","inputs":[{"name":"workflowId","type":"bytes32","internalType":"bytes32"}],"outputs":[{"name":"","type":"bool","internalType":"bool"}],"stateMutability":"view"},{"type":"event","name":"WorkflowDeleted","inputs":[{"name":"workflowId","type":"bytes32","indexed":true,"internalType":"bytes32"},{"name":"owner","type":"address","indexed":true,"internalType":"address"}],"anonymous":false},{"type":"event","name":"WorkflowPaused","inputs":[{"name":"workflowId","type":"bytes32","indexed":true,"internalType":"bytes32"},{"name":"owner","type":"address","indexed":true,"internalType":"address"}],"anonymous":false},{"type":"event","name":"WorkflowRegistered","inputs":[{"name":"workflowId","type":"bytes32","indexed":true,"internalType":"bytes32"},{"name":"owner","type":"address","indexed":true,"internalType":"address"},{"name":"nodes","type":"address[]","indexed":false,"internalType":"address[]"},{"name":"subscriptionIds","type":"uint256[]","indexed":false,"internalType":"uint256[]"}],"anonymous":false},{"type":"error","name":"InvalidWorkflow","inputs":[]},{"type":"error","name":"Unauthorized","inputs":[]},{"type":"error","name":"WorkflowAlreadyExists","inputs":[]},{"type":"error","name":"WorkflowNotFound","inputs":[]}],"bytecode":{"object":"0x6080604052348015600f57600080fd5b50610cc18061001f6000396000f3fe608060405234801561001057600080fd5b506004361061007d5760003560e01c8063bc62a9c31161005b578063bc62a9c3146100bd578063d49ba9cd146100e9578063e67bf7721461010c578063e690f3321461011f57600080fd5b80634adbd55914610082578063695e1340146100975780638c84351d146100aa575b600080fd5b61009561009036600461098c565b610132565b005b6100956100a536600461098c565b610212565b6100956100b83660046109f1565b610320565b6100d06100cb36600461098c565b610470565b6040516100e09493929190610a8f565b60405180910390f35b6100fc6100f736600461098c565b610641565b60405190151581526020016100e0565b61009561011a366004610b26565b610676565b61009561012d36600461098c565b610844565b8060008082815260208190526040902054600160a01b900460ff16600381111561015e5761015e610a3d565b0361017c576040516337df4ab960e11b815260040160405180910390fd5b6000818152602081905260409020546001600160a01b031633146101b2576040516282b42960e81b815260040160405180910390fd5b600082815260208190526040902060028154600160a01b900460ff1660038111156101df576101df610a3d565b146101fd57604051634ef96acd60e01b815260040160405180910390fd5b805460ff60a01b1916600160a01b1790555050565b8060008082815260208190526040902054600160a01b900460ff16600381111561023e5761023e610a3d565b0361025c576040516337df4ab960e11b815260040160405180910390fd5b6000818152602081905260409020546001600160a01b03163314610292576040516282b42960e81b815260040160405180910390fd5b600082815260208190526040902060038154600160a01b900460ff1660038111156102bf576102bf610a3d565b036102dd57604051634ef96acd60e01b815260040160405180910390fd5b805460ff60a01b1916600360a01b178155604051339084907f333c34b4894cfb45f10efb1bd63abf91b62943028b492eb2c6447a4c1d3e363590600090a3505050565b8260008082815260208190526040902054600160a01b900460ff16600381111561034c5761034c610a3d565b0361036a576040516337df4ab960e11b815260040160405180910390fd5b6000818152602081905260409020546001600160a01b031633146103a0576040516282b42960e81b815260040160405180910390fd5b600084815260208190526040902060038154600160a01b900460ff1660038111156103cd576103cd610a3d565b036103eb57604051634ef96acd60e01b815260040160405180910390fd5b6001810154831461040f57604051634ef96acd60e01b815260040160405180910390fd5b61041d600282016000610952565b60005b83811015610468578160020185858381811061043e5761043e610ba5565b83546001808201865560009586526020958690209290950293909301359201919091555001610420565b505050505050565b600081815260208190526040812081906060908190838154600160a01b900460ff1660038111156104a3576104a3610a3d565b036104c1576040516337df4ab960e11b815260040160405180910390fd5b805460018201546001600160a01b0382169650600160a01b90910460ff16945067ffffffffffffffff8111156104f9576104f9610bbb565b604051908082528060200260200182016040528015610522578160200160208202803683370190505b50600282015490935067ffffffffffffffff81111561054357610543610bbb565b60405190808252806020026020018201604052801561056c578160200160208202803683370190505b50915060005b60018201548110156105e35781600101818154811061059357610593610ba5565b9060005260206000200160009054906101000a90046001600160a01b03168482815181106105c3576105c3610ba5565b6001600160a01b0390921660209283029190910190910152600101610572565b5060005b60028201548110156106385781600201818154811061060857610608610ba5565b906000526020600020015483828151811061062557610625610ba5565b60209081029190910101526001016105e7565b50509193509193565b600080600083815260208190526040902054600160a01b900460ff16600381111561066e5761066e610a3d565b141592915050565b8461069457604051634ef96acd60e01b815260040160405180910390fd5b60008390036106b657604051634ef96acd60e01b815260040160405180910390fd5b8281146106d657604051634ef96acd60e01b815260040160405180910390fd5b60008086815260208190526040902054600160a01b900460ff16600381111561070157610701610a3d565b1461071f576040516349f818b560e11b815260040160405180910390fd5b60008581526020819052604081208054600160a01b6001600160a81b031990911660ff60a01b19331617178155905b848110156107f3578160010186868381811061076c5761076c610ba5565b90506020020160208101906107819190610bed565b81546001810183556000928352602090922090910180546001600160a01b0319166001600160a01b03909216919091179055600282018484838181106107c9576107c9610ba5565b8354600180820186556000958652602095869020929095029390930135920191909155500161074e565b50336001600160a01b0316867f307191fa0cfa6a3fd7a8068a13ce6b30967ddf36f099833f845a0f991c7085bb878787876040516108349493929190610c0f565b60405180910390a3505050505050565b8060008082815260208190526040902054600160a01b900460ff16600381111561087057610870610a3d565b0361088e576040516337df4ab960e11b815260040160405180910390fd5b6000818152602081905260409020546001600160a01b031633146108c4576040516282b42960e81b815260040160405180910390fd5b600082815260208190526040902060018154600160a01b900460ff1660038111156108f1576108f1610a3d565b1461090f57604051634ef96acd60e01b815260040160405180910390fd5b805460ff60a01b1916600160a11b178155604051339084907f0c899df55131eddb601f1a3f45a10536da39ffa64f16b0f2d76daf17b7a821f390600090a3505050565b50805460008255906000526020600020908101906109709190610973565b50565b5b808211156109885760008155600101610974565b5090565b60006020828403121561099e57600080fd5b5035919050565b60008083601f8401126109b757600080fd5b50813567ffffffffffffffff8111156109cf57600080fd5b6020830191508360208260051b85010111156109ea57600080fd5b9250929050565b600080600060408486031215610a0657600080fd5b83359250602084013567ffffffffffffffff811115610a2457600080fd5b610a30868287016109a5565b9497909650939450505050565b634e487b7160e01b600052602160045260246000fd5b600081518084526020840193506020830160005b82811015610a85578151865260209586019590910190600101610a67565b5093949350505050565b6001600160a01b038516815260006080820160048610610abf57634e487b7160e01b600052602160045260246000fd5b60208381018790526080604085015285519182905285019060a084019060005b81811015610b065783516001600160a01b0316835260209384019390920191600101610adf565b50508381036060850152610b1a8186610a53565b98975050505050505050565b600080600080600060608688031215610b3e57600080fd5b85359450602086013567ffffffffffffffff811115610b5c57600080fd5b610b68888289016109a5565b909550935050604086013567ffffffffffffffff811115610b8857600080fd5b610b94888289016109a5565b969995985093965092949392505050565b634e487b7160e01b600052603260045260246000fd5b634e487b7160e01b600052604160045260246000fd5b80356001600160a01b0381168114610be857600080fd5b919050565b600060208284031215610bff57600080fd5b610c0882610bd1565b9392505050565b6040808252810184905260008560608301825b87811015610c50576001600160a01b03610c3b84610bd1565b16825260209283019290910190600101610c22565b5083810360208501528481526001600160fb1b03851115610c7057600080fd5b8460051b91508186602083013701602001969550505050505056fea2646970667358221220cc29d5f3a577e477ebb37a74ed1110d398afbca517fa1fe463581e86c6c32d3164736f6c634300081e0033","linkReferences":{}},"methodIdentifiers":{"deleteWorkflow(bytes32)":"695e1340","getWorkflow(bytes32)":"bc62a9c3","pauseWorkflow(bytes32)":"e690f332","registerWorkflow(bytes32,address[],uint256[])":"e67bf772","resumeWorkflow(bytes32)":"4adbd559","updateSubscriptionIds(bytes32,uint256[])":"8c84351d","workflowExists(bytes32)":"d49ba9cd"},"id":27}