{"abi":[{"type":"constructor","inputs":[{"name":"workflowId_","type":"bytes32","internalType":"bytes32"},{"name":"rootStepNodeId_","type":"bytes32","internalType":"bytes32"},{"name":"stepNodeIds_","type":"bytes32[]","internalType":"bytes32[]"},{"name":"steps","type":"tuple[]","internalType":"struct MeshWorkflowExecutor.Step[]","components":[{"name":"target","type":"address","internalType":"address"},{"name":"data","type":"bytes","internalType":"bytes"},{"name":"logTopic0","type":"bytes32","internalType":"bytes32"},{"name":"nextIndices","type":"uint8[]","internalType":"uint8[]"}]}],"stateMutability":"nonpayable"},{"type":"function","name":"nodeId","inputs":[],"outputs":[{"name":"","type":"bytes32","internalType":"bytes32"}],"stateMutability":"view"},{"type":"function","name":"onEvent","inputs":[{"name":"emitter","type":"address","internalType":"address"},{"name":"eventTopics","type":"bytes32[]","internalType":"bytes32[]"},{"name":"data","type":"bytes","internalType":"bytes"}],"outputs":[],"stateMutability":"nonpayable"},{"type":"function","name":"stepCount","inputs":[],"outputs":[{"name":"","type":"uint256","internalType":"uint256"}],"stateMutability":"view"},{"type":"function","name":"stepNodeIdAt","inputs":[{"name":"i","type":"uint256","internalType":"uint256"}],"outputs":[{"name":"","type":"bytes32","internalType":"bytes32"}],"stateMutability":"view"},{"type":"function","name":"supportsInterface","inputs":[{"name":"interfaceId","type":"bytes4","internalType":"bytes4"}],"outputs":[{"name":"","type":"bool","internalType":"bool"}],"stateMutability":"pure"},{"type":"function","name":"workflowId","inputs":[],"outputs":[{"name":"","type":"bytes32","internalType":"bytes32"}],"stateMutability":"view"},{"type":"event","name":"WorkflowNoOp","inputs":[{"name":"workflowId","type":"bytes32","indexed":true,"internalType":"bytes32"},{"name":"nodeId","type":"bytes32","indexed":true,"internalType":"bytes32"},{"name":"reason","type":"string","indexed":false,"internalType":"string"}],"anonymous":false},{"type":"event","name":"WorkflowStepExecuted","inputs":[{"name":"workflowId","type":"bytes32","indexed":true,"internalType":"bytes32"},{"name":"nodeId","type":"bytes32","indexed":true,"internalType":"bytes32"},{"name":"timestamp","type":"uint256","indexed":false,"internalType":"uint256"}],"anonymous":false},{"type":"error","name":"OnlyReactivityPrecompile","inputs":[]}],"bytecode":{"object":"0x60c060405234801561001057600080fd5b506040516110cb3803806110cb83398101604081905261002f91610751565b608084905260a0839052805161007d5760405162461bcd60e51b815260206004820152600e60248201526d4d6573683a206e6f20737465707360901b60448201526064015b60405180910390fd5b60ff815111156100cf5760405162461bcd60e51b815260206004820152601460248201527f4d6573683a20746f6f206d616e792073746570730000000000000000000000006044820152606401610074565b805182511461010f5760405162461bcd60e51b815260206004820152600c60248201526b26b2b9b41d1034b2103632b760a11b6044820152606401610074565b60005b825181101561015a57600183828151811061012f5761012f610827565b6020908102919091018101518254600181810185556000948552929093209092019190915501610112565b5060005b81518110156104b75760008060001b83838151811061017f5761017f610827565b602002602001015160400151141590506000806001600160a01b03168484815181106101ad576101ad610827565b6020026020010151600001516001600160a01b0316141580156101ee575060008484815181106101df576101df610827565b60200260200101516020015151115b90508180156101fa5750805b156102475760405162461bcd60e51b815260206004820152601360248201527f4d6573683a20656d697420786f722063616c6c000000000000000000000000006044820152606401610074565b81156102cc5760006001600160a01b031684848151811061026a5761026a610827565b6020026020010151600001516001600160a01b0316146102cc5760405162461bcd60e51b815260206004820152601c60248201527f4d6573683a20656d6974206e65656473207a65726f20746172676574000000006044820152606401610074565b600080546001018082558180528190859081106102eb576102eb610827565b9060005260206000209060040201905084848151811061030d5761030d610827565b60209081029190910101515181546001600160a01b0319166001600160a01b03909116178155845185908590811061034757610347610827565b60200260200101516020015181600101908161036391906108c6565b5084848151811061037657610376610827565b602002602001015160400151816002018190555060005b85858151811061039f5761039f610827565b602002602001015160600151518110156104a757855186868281106103c6576103c6610827565b60200260200101516060015182815181106103e3576103e3610827565b602002602001015160ff161061042c5760405162461bcd60e51b815260206004820152600e60248201526d4d6573683a20626164206564676560901b6044820152606401610074565b8160030186868151811061044257610442610827565b602002602001015160600151828151811061045f5761045f610827565b602090810291909101810151825460018181018555600094855293839020928104909201805460ff928316601f9094166101000a93840292909302199092161790550161038d565b50506001909201915061015e9050565b5050505050610984565b634e487b7160e01b600052604160045260246000fd5b604051608081016001600160401b03811182821017156104f9576104f96104c1565b60405290565b604051601f8201601f191681016001600160401b0381118282101715610527576105276104c1565b604052919050565b60006001600160401b03821115610548576105486104c1565b5060051b60200190565b600082601f83011261056357600080fd5b81516105766105718261052f565b6104ff565b8082825260208201915060208360051b86010192508583111561059857600080fd5b602085015b838110156105c457805160ff811681146105b657600080fd5b83526020928301920161059d565b5095945050505050565b600082601f8301126105df57600080fd5b81516105ed6105718261052f565b8082825260208201915060208360051b86010192508583111561060f57600080fd5b602085015b838110156105c45780516001600160401b0381111561063257600080fd5b86016080818903601f1901121561064857600080fd5b6106506104d7565b60208201516001600160a01b038116811461066a57600080fd5b815260408201516001600160401b0381111561068557600080fd5b82016020810190603f018a1361069a57600080fd5b80516001600160401b038111156106b3576106b36104c1565b6106c6601f8201601f19166020016104ff565b8181528b60208385010111156106db57600080fd5b60005b828110156106fa576020818501810151838301820152016106de565b506000602092820183015290830152506060820151604082015260808201516001600160401b0381111561072d57600080fd5b61073c8a602083860101610552565b60608301525084525060209283019201610614565b6000806000806080858703121561076757600080fd5b84516020860151604087015191955093506001600160401b0381111561078c57600080fd5b8501601f8101871361079d57600080fd5b80516107ab6105718261052f565b8082825260208201915060208360051b8501019250898311156107cd57600080fd5b6020840193505b828410156107ef5783518252602093840193909101906107d4565b6060890151909550925050506001600160401b0381111561080f57600080fd5b61081b878288016105ce565b91505092959194509250565b634e487b7160e01b600052603260045260246000fd5b600181811c9082168061085157607f821691505b60208210810361087157634e487b7160e01b600052602260045260246000fd5b50919050565b601f8211156108c157806000526020600020601f840160051c8101602085101561089e5750805b601f840160051c820191505b818110156108be57600081556001016108aa565b50505b505050565b81516001600160401b038111156108df576108df6104c1565b6108f3816108ed845461083d565b84610877565b6020601f821160018114610927576000831561090f5750848201515b600019600385901b1c1916600184901b1784556108be565b600084815260208120601f198516915b828110156109575787850151825560209485019460019092019101610937565b50848210156109755786840151600019600387901b60f8161c191681555b50505050600190811b01905550565b60805160a05161071d6109ae6000396000609401526000818160f901526103d1015261071d6000f3fe608060405234801561001057600080fd5b50600436106100625760003560e01c806301ffc9a714610067578063139d7fed1461008f578063415deffa146100c457806353edf33d146100cc5780637788ee34146100e1578063df6465d0146100f4575b600080fd5b61007a61007536600461049c565b61011b565b60405190151581526020015b60405180910390f35b6100b67f000000000000000000000000000000000000000000000000000000000000000081565b604051908152602001610086565b6000546100b6565b6100df6100da366004610516565b610152565b005b6100b66100ef3660046105df565b610188565b6100b67f000000000000000000000000000000000000000000000000000000000000000081565b60006301ffc9a760e01b6001600160e01b03198316148061014c57506353edf33d60e01b6001600160e01b03198316145b92915050565b33610100146101745760405163191fbb7560e01b815260040160405180910390fd5b61018185858585856101af565b5050505050565b60006001828154811061019d5761019d6105f8565b90600052602060002001549050919050565b610181600086868686865b60005460ff8716106102035760405162461bcd60e51b815260206004820152600d60248201526c09acae6d07440c4c2c840d2c8f609b1b60448201526064015b60405180910390fd5b6000808760ff168154811061021a5761021a6105f8565b906000526020600020906004020190506000801b8160020154146102d7576102d2816002015482600101805461024f9061060e565b80601f016020809104026020016040519081016040528092919081815260200182805461027b9061060e565b80156102c85780601f1061029d576101008083540402835291602001916102c8565b820191906000526020600020905b8154815290600101906020018083116102ab57829003601f168201915b505050505061048c565b6103ae565b80546001600160a01b031615801590610300575060008160010180546102fc9061060e565b9050115b156103ae5780546040516000916001600160a01b031690610325906001850190610648565b6000604051808303816000865af19150503d8060008114610362576040519150601f19603f3d011682016040523d82523d6000602084013e610367565b606091505b50509050806103ac5760405162461bcd60e51b815260206004820152601160248201527013595cda0e8818d85b1b0819985a5b1959607a1b60448201526064016101fa565b505b60018760ff16815481106103c4576103c46105f8565b90600052602060002001547f00000000000000000000000000000000000000000000000000000000000000007f84b975aa2cd6c606139bfc8e90907b1fe762c8bd6fa50fffc59e4953d2a8356b4260405161042191815260200190565b60405180910390a360005b60038201548110156104825761047a826003018281548110610450576104506105f8565b90600052602060002090602091828204019190069054906101000a900460ff1688888888886101ba565b60010161042c565b5050505050505050565b805160208201838282a150505050565b6000602082840312156104ae57600080fd5b81356001600160e01b0319811681146104c657600080fd5b9392505050565b60008083601f8401126104df57600080fd5b50813567ffffffffffffffff8111156104f757600080fd5b60208301915083602082850101111561050f57600080fd5b9250929050565b60008060008060006060868803121561052e57600080fd5b85356001600160a01b038116811461054557600080fd5b9450602086013567ffffffffffffffff81111561056157600080fd5b8601601f8101881361057257600080fd5b803567ffffffffffffffff81111561058957600080fd5b8860208260051b840101111561059e57600080fd5b60209190910194509250604086013567ffffffffffffffff8111156105c257600080fd5b6105ce888289016104cd565b969995985093965092949392505050565b6000602082840312156105f157600080fd5b5035919050565b634e487b7160e01b600052603260045260246000fd5b600181811c9082168061062257607f821691505b60208210810361064257634e487b7160e01b600052602260045260246000fd5b50919050565b6000808354818160011c9050600182168061066457607f821691505b60208210810361068257634e487b7160e01b84526022600452602484fd5b80801561069657600181146106ab576106db565b60ff19841687528215158302870194506106db565b60008881526020902060005b848110156106d3578154898201526001909101906020016106b7565b505082870194505b5092969550505050505056fea2646970667358221220f726b0a6c41fccfc882592b34f0e8eb958d65af4d53261e7dfde02a59a2eacc464736f6c634300081e0033","linkReferences":{}},"methodIdentifiers":{"nodeId()":"139d7fed","onEvent(address,bytes32[],bytes)":"53edf33d","stepCount()":"415deffa","stepNodeIdAt(uint256)":"7788ee34","supportsInterface(bytes4)":"01ffc9a7","workflowId()":"df6465d0"},"id":24}