{"abi":[{"type":"constructor","inputs":[{"name":"workflowId_","type":"bytes32","internalType":"bytes32"},{"name":"nodeId_","type":"bytes32","internalType":"bytes32"}],"stateMutability":"nonpayable"},{"type":"function","name":"nodeId","inputs":[],"outputs":[{"name":"","type":"bytes32","internalType":"bytes32"}],"stateMutability":"view"},{"type":"function","name":"onEvent","inputs":[{"name":"emitter","type":"address","internalType":"address"},{"name":"eventTopics","type":"bytes32[]","internalType":"bytes32[]"},{"name":"data","type":"bytes","internalType":"bytes"}],"outputs":[],"stateMutability":"nonpayable"},{"type":"function","name":"supportsInterface","inputs":[{"name":"interfaceId","type":"bytes4","internalType":"bytes4"}],"outputs":[{"name":"","type":"bool","internalType":"bool"}],"stateMutability":"pure"},{"type":"function","name":"workflowId","inputs":[],"outputs":[{"name":"","type":"bytes32","internalType":"bytes32"}],"stateMutability":"view"},{"type":"event","name":"WorkflowNoOp","inputs":[{"name":"workflowId","type":"bytes32","indexed":true,"internalType":"bytes32"},{"name":"nodeId","type":"bytes32","indexed":true,"internalType":"bytes32"},{"name":"reason","type":"string","indexed":false,"internalType":"string"}],"anonymous":false},{"type":"event","name":"WorkflowStepExecuted","inputs":[{"name":"workflowId","type":"bytes32","indexed":true,"internalType":"bytes32"},{"name":"nodeId","type":"bytes32","indexed":true,"internalType":"bytes32"},{"name":"timestamp","type":"uint256","indexed":false,"internalType":"uint256"}],"anonymous":false},{"type":"error","name":"OnlyReactivityPrecompile","inputs":[]}],"bytecode":{"object":"0x60c060405234801561001057600080fd5b506040516103e23803806103e283398101604081905261002f9161003d565b60809190915260a052610061565b6000806040838503121561005057600080fd5b505080516020909101519092909150565b60805160a05161035061009260003960008181607e015261015c01526000818160c8015261017d01526103506000f3fe608060405234801561001057600080fd5b506004361061004c5760003560e01c806301ffc9a714610051578063139d7fed1461007957806353edf33d146100ae578063df6465d0146100c3575b600080fd5b61006461005f3660046101d7565b6100ea565b60405190151581526020015b60405180910390f35b6100a07f000000000000000000000000000000000000000000000000000000000000000081565b604051908152602001610070565b6100c16100bc366004610251565b610121565b005b6100a07f000000000000000000000000000000000000000000000000000000000000000081565b60006301ffc9a760e01b6001600160e01b03198316148061011b57506353edf33d60e01b6001600160e01b03198316145b92915050565b33610100146101435760405163191fbb7560e01b815260040160405180910390fd5b6101508585858585610157565b5050505050565b6101507f00000000000000000000000000000000000000000000000000000000000000007f00000000000000000000000000000000000000000000000000000000000000007f84b975aa2cd6c606139bfc8e90907b1fe762c8bd6fa50fffc59e4953d2a8356b426040516101cd91815260200190565b60405180910390a3565b6000602082840312156101e957600080fd5b81356001600160e01b03198116811461020157600080fd5b9392505050565b60008083601f84011261021a57600080fd5b50813567ffffffffffffffff81111561023257600080fd5b60208301915083602082850101111561024a57600080fd5b9250929050565b60008060008060006060868803121561026957600080fd5b85356001600160a01b038116811461028057600080fd5b9450602086013567ffffffffffffffff81111561029c57600080fd5b8601601f810188136102ad57600080fd5b803567ffffffffffffffff8111156102c457600080fd5b8860208260051b84010111156102d957600080fd5b60209190910194509250604086013567ffffffffffffffff8111156102fd57600080fd5b61030988828901610208565b96999598509396509294939250505056fea26469706673582212208e92a97ff2aed9eb0e6d48c11ad4f4fa5dcd2c009727f93cfe7738b8f3b61f3664736f6c634300081e0033","linkReferences":{}},"methodIdentifiers":{"nodeId()":"139d7fed","onEvent(address,bytes32[],bytes)":"53edf33d","supportsInterface(bytes4)":"01ffc9a7","workflowId()":"df6465d0"},"id":26}