{"abi":[{"type":"constructor","inputs":[{"name":"workflowId_","type":"bytes32","internalType":"bytes32"},{"name":"nodeId_","type":"bytes32","internalType":"bytes32"},{"name":"callTarget_","type":"address","internalType":"address"},{"name":"callData_","type":"bytes","internalType":"bytes"},{"name":"logTopic0_","type":"bytes32","internalType":"bytes32"}],"stateMutability":"nonpayable"},{"type":"function","name":"nodeId","inputs":[],"outputs":[{"name":"","type":"bytes32","internalType":"bytes32"}],"stateMutability":"view"},{"type":"function","name":"onEvent","inputs":[{"name":"emitter","type":"address","internalType":"address"},{"name":"eventTopics","type":"bytes32[]","internalType":"bytes32[]"},{"name":"data","type":"bytes","internalType":"bytes"}],"outputs":[],"stateMutability":"nonpayable"},{"type":"function","name":"supportsInterface","inputs":[{"name":"interfaceId","type":"bytes4","internalType":"bytes4"}],"outputs":[{"name":"","type":"bool","internalType":"bool"}],"stateMutability":"pure"},{"type":"function","name":"workflowId","inputs":[],"outputs":[{"name":"","type":"bytes32","internalType":"bytes32"}],"stateMutability":"view"},{"type":"event","name":"WorkflowNoOp","inputs":[{"name":"workflowId","type":"bytes32","indexed":true,"internalType":"bytes32"},{"name":"nodeId","type":"bytes32","indexed":true,"internalType":"bytes32"},{"name":"reason","type":"string","indexed":false,"internalType":"string"}],"anonymous":false},{"type":"event","name":"WorkflowStepExecuted","inputs":[{"name":"workflowId","type":"bytes32","indexed":true,"internalType":"bytes32"},{"name":"nodeId","type":"bytes32","indexed":true,"internalType":"bytes32"},{"name":"timestamp","type":"uint256","indexed":false,"internalType":"uint256"}],"anonymous":false},{"type":"error","name":"OnlyReactivityPrecompile","inputs":[]}],"bytecode":{"object":"0x61010060405234801561001157600080fd5b50604051610a29380380610a2983398101604081905261003091610154565b608085905260a084905280151560006001600160a01b03851615801590610058575060008451115b90508180156100645750805b156100b65760405162461bcd60e51b815260206004820152601360248201527f4d6573683a20656d697420786f722063616c6c0000000000000000000000000060448201526064015b60405180910390fd5b8115610113576001600160a01b038516156101135760405162461bcd60e51b815260206004820152601c60248201527f4d6573683a20656d6974206e65656473207a65726f207461726765740000000060448201526064016100ad565b6001600160a01b03851660c05260e0839052600061013185826102e9565b50505050505050506103a7565b634e487b7160e01b600052604160045260246000fd5b600080600080600060a0868803121561016c57600080fd5b85516020870151604088015191965094506001600160a01b038116811461019257600080fd5b60608701519093506001600160401b038111156101ae57600080fd5b8601601f810188136101bf57600080fd5b80516001600160401b038111156101d8576101d861013e565b604051601f8201601f19908116603f011681016001600160401b03811182821017156102065761020661013e565b6040528181528282016020018a101561021e57600080fd5b60005b8281101561023d57602081850181015183830182015201610221565b506000918101602001919091526080979097015195989497509295949392505050565b600181811c9082168061027457607f821691505b60208210810361029457634e487b7160e01b600052602260045260246000fd5b50919050565b601f8211156102e457806000526020600020601f840160051c810160208510156102c15750805b601f840160051c820191505b818110156102e157600081556001016102cd565b50505b505050565b81516001600160401b038111156103025761030261013e565b610316816103108454610260565b8461029a565b6020601f82116001811461034a57600083156103325750848201515b600019600385901b1c1916600184901b1784556102e1565b600084815260208120601f198516915b8281101561037a578785015182556020948501946001909201910161035a565b50848210156103985786840151600019600387901b60f8161c191681555b50505050600190811b01905550565b60805160a05160c05160e05161062f6103fa6000396000818161015901526101820152600081816102380152610284015260008181607e015261036201526000818160c80152610383015261062f6000f3fe608060405234801561001057600080fd5b506004361061004c5760003560e01c806301ffc9a714610051578063139d7fed1461007957806353edf33d146100ae578063df6465d0146100c3575b600080fd5b61006461005f3660046103dd565b6100ea565b60405190151581526020015b60405180910390f35b6100a07f000000000000000000000000000000000000000000000000000000000000000081565b604051908152602001610070565b6100c16100bc366004610457565b610121565b005b6100a07f000000000000000000000000000000000000000000000000000000000000000081565b60006301ffc9a760e01b6001600160e01b03198316148061011b57506353edf33d60e01b6001600160e01b03198316145b92915050565b33610100146101435760405163191fbb7560e01b815260040160405180910390fd5b6101508585858585610157565b5050505050565b7f000000000000000000000000000000000000000000000000000000000000000015610236576102317f0000000000000000000000000000000000000000000000000000000000000000600080546101ae90610520565b80601f01602080910402602001604051908101604052809291908181526020018280546101da90610520565b80156102275780601f106101fc57610100808354040283529160200191610227565b820191906000526020600020905b81548152906001019060200180831161020a57829003601f168201915b5050505050610350565b610348565b7f00000000000000000000000000000000000000000000000000000000000000006001600160a01b03161580159061027b5750600080805461027790610520565b9050115b156103485760007f00000000000000000000000000000000000000000000000000000000000000006001600160a01b031660006040516102bb919061055a565b6000604051808303816000865af19150503d80600081146102f8576040519150601f19603f3d011682016040523d82523d6000602084013e6102fd565b606091505b50509050806103465760405162461bcd60e51b815260206004820152601160248201527013595cda0e8818d85b1b0819985a5b1959607a1b604482015260640160405180910390fd5b505b610150610360565b805160208201838282a150505050565b7f00000000000000000000000000000000000000000000000000000000000000007f00000000000000000000000000000000000000000000000000000000000000007f84b975aa2cd6c606139bfc8e90907b1fe762c8bd6fa50fffc59e4953d2a8356b426040516103d391815260200190565b60405180910390a3565b6000602082840312156103ef57600080fd5b81356001600160e01b03198116811461040757600080fd5b9392505050565b60008083601f84011261042057600080fd5b50813567ffffffffffffffff81111561043857600080fd5b60208301915083602082850101111561045057600080fd5b9250929050565b60008060008060006060868803121561046f57600080fd5b85356001600160a01b038116811461048657600080fd5b9450602086013567ffffffffffffffff8111156104a257600080fd5b8601601f810188136104b357600080fd5b803567ffffffffffffffff8111156104ca57600080fd5b8860208260051b84010111156104df57600080fd5b60209190910194509250604086013567ffffffffffffffff81111561050357600080fd5b61050f8882890161040e565b969995985093965092949392505050565b600181811c9082168061053457607f821691505b60208210810361055457634e487b7160e01b600052602260045260246000fd5b50919050565b6000808354818160011c9050600182168061057657607f821691505b60208210810361059457634e487b7160e01b84526022600452602484fd5b8080156105a857600181146105bd576105ed565b60ff19841687528215158302870194506105ed565b60008881526020902060005b848110156105e5578154898201526001909101906020016105c9565b505082870194505b5092969550505050505056fea2646970667358221220cc6b172a14e75ab18440a7cfee9c8f5fc677b0db29c8f279e94e0043edf3247964736f6c634300081e0033","linkReferences":{}},"methodIdentifiers":{"nodeId()":"139d7fed","onEvent(address,bytes32[],bytes)":"53edf33d","supportsInterface(bytes4)":"01ffc9a7","workflowId()":"df6465d0"},"id":24}